:020000044000BA
:1000000097260000938606B317260000130646B90C
:10001000972100009381013117810000130181FEB7
:10002000172200001302B2BB137202FC23A00600C9
:1000300093864600E3CCC6FE970200009382820CB2
:10004000370300F023205300EF00404AEF009022D6
:10005000B70200E023A0A20063000000000000003F
:100060000000000000000000000000000000000090
:100070000000000000000000000000000000000080
:100080000000000000000000000000000000000070
:100090000000000000000000000000000000000060
:1000A0000000000000000000000000000000000050
:1000B0000000000000000000000000000000000040
:1000C0000000000000000000000000000000000030
:1000D0000000000000000000000000000000000020
:1000E000B16B00B50000000000000000000000003F
:1000F0000000000000000000000000000000000000
:1001000013000000130181FD232011002322510060
:1001100023246100232671002328A100232AB10093
:10012000232CC100232ED1002320E102B70700F0C9
:100130009387070483A707009387C7FF2322F10251
:10014000B70500F003A5050103A605023375C50038
:1001500093050100EF00C03A832001008322410093
:10016000032381008323C10003250101832541016D
:10017000032681018326C10103270102B70700F08E
:100180009387070393E71700130181022380F70089
:100190008327C1FF67800700B70500F0938505033B
:1001A00003A6050023A0A500130506006780000034
:1001B0002320850023229500232435002326450093
:1001C00023282500232A15001365000067800000FE
:1001D0000324050083244500832185000322C500F4
:1001E000032105018320450113E505006780000018
:1001F0000324050083244500832185000322C500D4
:100200000321050183204501B70700F09387070309
:1002100093E717002380F700678000007300000059
:10022000678000006F0000006F0000006F0000009A
:1002300067800000130141FF232281003705004041
:100240003714000093050480130770009306100014
:10025000130670001305452223241100EF001071CE
:1002600037050040930504801307600093062000C3
:100270001306600013058522EF00506F370500401C
:1002800093050480130750009306300013065000B6
:100290001305C522EF00906D3705004093050480DB
:1002A00013050523EF10000C832081000324410077
:1002B000130510001301C1006780000037150040CE
:1002C0001305C5736F000077370700E10327074068
:1002D0001301C1FE2326810023249100232811004D
:1002E0009304000213041000370700E1832607403F
:1002F00013141400638C06049384F4FF63880404CD
:1003000003270740930600023377870063EEE60079
:10031000B7160040131727009386C6763307D70019
:100320000327070067000700370700E18325074020
:100330003717004013054774EF00C06F370700E11F
:100340008326074013141400E39806FA8320010162
:100350000324C10083248100130141016780000050
:10036000B71602E1370702E10327074083A506809D
:1003700003A606C0930600003347B7003377C700D3
:1003800013761700630206042322E100371502E109
:10039000372700400323058013962600930507AEF8
:1003A000B385C500130610003316D60083A50500DB
:1003B0002320D100334666002320C580E780050056
:1003C0000327410083260100135717009386160068
:1003D000E31807FA6FF05FF1B71601E1370701E1A3
:1003E0000327074083A5068003A606C093060000E6
:1003F0003347B7003377C7006F00C005B74501E149
:1004000003A6054283A2054303A3054403A50543B0
:1004100033465600337666003346A60023A8C5420D
:100420002322E10037270040130607AB93952600EF
:100430003306B600032606002320D100E70006009D
:1004400003274100832601001357170093861600E7
:10045000E30C07E813761700E30806FE13062000F6
:100460006382C6066368D602E39A06F8B74501E1DF
:1004700003A6050283A2050303A3050403A5050340
:1004800033465600337666003346A60023A8C502DD
:100490006FF01FF913063000E394C6F8B75501E179
:1004A00003A605C283A205C303A305C403A505C310
:1004B00033465600337666003346A60023A8C5C2ED
:1004C0006FF01FF6B75501E103A6058283A20583ED
:1004D00003A3058403A505833346560033766600DF
:1004E0003346A60023A8C5826FF09FF3370700F0BC
:1004F000930610002320D7022328D702678000002C
:10050000130141FF23209100B724004023228100E2
:100510002324110013040500938404AC1377140002
:10052000135414006308070003A7040063040700C2
:10053000E700070093844400E31204FE8320810057
:1005400003244100832401001301C10067800000DF
:10055000130141FC232A8102232C1102232891023A
:1005600083C60500130305002324C100138705007B
:1005700013850600130403006384060893065002E3
:10058000631CD50403461700930600036304D62EAC
:1005900093060002930506FD2326D10093F5F50F7F
:1005A00013059000130717009306F0FF6376B52E2E
:1005B000130686FA1376F60F9305000263EAC50266
:1005C000B7250040131626009385C5803306B60074
:1005D0000326060067000600630E042E832604002F
:1005E0002380A60083260400938616002320D400CF
:1005F0000345170013071700E31205F8130304005F
:10060000630C0300032703002300070003270300F4
:10061000130717002320E3008320810303244103F1
:1006200083240103130500001301C1036780000048
:100630008325810003A6050013834500930500016F
:10064000631C060C93050003232461002300B10200
:100650001303000313051000B386A6409384F6FF2E
:100660009305F0FF6356D004232AE100130704002A
:10067000138404008324C1002322C10023286100C5
:1006800063060716032607002300960003260700CB
:10069000130616002320C7001304F4FFE312B4FE70
:1006A000130407000326410003230101032741012E
:1006B0009304060013050300630A04028326040062
:1006C0002380A60083260400938616002320D400EE
:1006D0009386F4FFE35E90F01386F4013306260060
:1006E0000345060093840600E31A04FCE30205FEBA
:1006F0002320E100EF00D07A032701006FF05FFDB7
:100700008325810003A60500138345006342061E6E
:100710009305A000E30806F2232461009304060079
:100720006F00C01F8326810003A506009386460044
:100730006300042A032604002324D10013071700B2
:100740002300A60083260400938616002320D400ED
:1007500003450700E31405E26FF05FEA832581009B
:1007600003A60500138345009305A0006FF09FFAD0
:100770000326810083240600130646002324C100BB
:100780006380042403C50400630E0508E38206E6C3
:100790002322E10063080406032604009384140066
:1007A0009386F6FF2300A600032604001306160016
:1007B0002320C40003C5040063040506E39C06FC73
:1007C000032741000345170013071700E31805DA54
:1007D0006FF0DFE2832581001307170003A60500F1
:1007E000138345009305A0006FF09FE51385040077
:1007F0002320E100EF00D06A032701009305F0FFFA
:100800006FF09FE92320D100EF009069832601005B
:1008100003C51400938414009386F6FFE31005FAD1
:10082000032741001386F6FF9304F0FFE352D0DC68
:100830002328E100130704000324C1006304071602
:1008400083260700238086008326070093861600F0
:100850002320D7001306F6FFE31296FE13040700C9
:10086000032701010345170013071700E31805D0FC
:100870006FF0DFD803462700930600032326D1003C
:10088000930506FD93F5F50F130590001307270058
:100890009306F0FFE36EB5D0930600009305900039
:1008A0001383060093162300B38666001307170010
:1008B00093961600B386C60003460700138306FD11
:1008C000130506FD1375F50FE3FEA5FC9306030063
:1008D0006FF01FCE2320E100EF00905C03270100A2
:1008E0000345170013071700E31A05C86FF01FD15F
:1008F000B304C040630E040E032604009305D00227
:100900002300B60003260400130616002320C400AB
:100910009386F6FF232461009305A000371600405C
:100920001306867F232E8100930200002328C10036
:10093000232AD100232CE100138405009305040031
:100940001385040023225100EF00802C930605003C
:10095000930504001385040023209100938406006E
:10096000EF00802F03270101832241003305A700F8
:100970000343050013870202B30627000327010083
:100980001386020023806600938212001385020002
:10099000E37687FA83264101032781010324C101FD
:1009A0006FF09FCB130504002322E1002320C10038
:1009B000EF00104F03274100032601006FF09FE96D
:1009C000371600401305C0039304067F6FF01FDC49
:1009D0001376F50F2324D100E30C06C01375F50F31
:1009E0002320E100EF00D04B032701006FF05FC030
:1009F0001305D0022324E1002322D100232061002B
:100A0000EF00104A032781008326410003230100E1
:100A10006FF01FF093F5F50FB306C500130705003F
:100A20006308060013071700A30FB7FEE31CD7FEE9
:100A3000678000001301C1FD130301012328B100E9
:100A4000232AC100930505001306030013050000C7
:100A500023261100232CD100232EE1002320F102B4
:100A600023206100EFF0DFAE8320C10013014102BB
:100A700067800000130101FF232611002324810059
:100A8000EF001044B72500403725004093850589C5
:100A90001305458AEFF01FFA376400003725004040
:100AA000930544C61305C5B9EF0000133725004070
:100AB000930544C61305858BEFF0DFF7EFF08FF752
:100AC000B72600401307050003A506B22320E10066
:100AD000EFF00FEE37240040032704B2032547054B
:100AE0002328A704032701006310070213058500CC
:100AF000EFF00FF08320C1000324810013050000F4
:100B00001301010167800000EF00503F032704B28A
:100B1000032507056FF09FFDB7230040938343B380
:100B200003A603001301C1FF232081001304350035
:100B30001374C4FF93050600930280FF130384001F
:100B400003250600630E05060327460013771700EA
:100B5000631607006F008007032505000327450083
:100B600013771700E31A07FE930505001306050027
:100B7000631E070083260600638A060003A746005B
:100B80001386060013771700E30607FE3387B2408B
:100B90003307E60023A2E50023A0C500E36267FA5D
:100BA0003383650023A0B3001364140023A0650001
:100BB00023A285002320C300232253001385850030
:100BC00003240100130141006780000013050600A3
:100BD000130605006FF0DFF9138735001377C7FFA1
:100BE000938585FFB305B500130707FF2320B500E4
:100BF0002322E50023A00500372700402328A7B2C1
:100C00003727004023A20500232AA7B267800000EF
:100C100093060500638E05021307100063CA0500E2
:100C20009395150013171700E3DC05FE6302070216
:100C30001305000063E6B600B386B6403305E50051
:100C40001357170093D51500E31607FE67800000C1
:100C50001305000067800000638A05021307100077
:100C600063CA05009395150013171700E3DC05FE12
:100C700063020702135717006364B5003305B540DC
:100C800093D51500E31807FE6780000013050000E8
:100C9000678000006780000037270040032707B205
:100CA00093053000130310000326470513070600C1
:100CB0006F00C00003270700630AC7028346870747
:100CC000E39AB6FE035527069306F5FF93960601B1
:100CD00093D60601E30005FE2311D706E39C06FC2C
:100CE000230C670603270700E31AC7FC6780000090
:100CF000130141FF2322810037240040130404B272
:100D000083260400373733332324110083A60605D6
:100D10001307373303A5860503260500631AE6008B
:100D200083208100032441001301C100678000007B
:100D300083A5C605EF00C07F0327040037250040C8
:100D40001305458D032707058326C7050326870559
:100D500083550706EFF01FCE6F000000130141FF1F
:100D60003723004023209100930403B203A704001B
:100D7000372500401305859083250706232281002F
:100D80002324110003244705EFF0DFCA6F00C001E0
:100D900003A7040003240400032747058356040621
:100DA000035707066380E60403570407E30207FEC0
:100DB0000357E40683568406035644078355040606
:100DC000372500401305C595EFF0DFC603A70400E3
:100DD0000324040003274705835604060357070628
:100DE000E394E6FC03244100832081008324010076
:100DF000372500401305059A1301C1006FF09FC30A
:100E0000130141FF3723004023209100930403B2D4
:100E100003A7040023228100232411008326070650
:100E200003244705938616002320D7066F00C001D0
:100E300003A7040003240400032747058356040680
:100E4000035707066388E60A03570407E30207FE11
:100E50008356C4060316240783550406372700402B
:100E60001305879DEFF01FBD0357C40663140700E9
:100E7000230C040603576406835624071307F7FF61
:100E8000131707019386F6FF135707012319D4069A
:100E90002313E406E31E07F88355040637250040B4
:100EA000130505A0EFF01FB9035744060355C40608
:100EB0008356440713071700835504070356A406F7
:100EC0002313E40603A70400B386A600130510004D
:100ED000230CA406231AD406032747052319B406B6
:100EE0002316C4060324040003570706835604068A
:100EF000E39CE6F483208100032441008324010065
:100F00001301C100678000001301C1FE2326810088
:100F100037240040130404B28326040023249100E4
:100F20002328110083A4460503A706051306200005
:100F300083D52407834687072320B1006384C60E28
:100F4000EFF01FEC03270400930520030325070699
:100F50002322E100EFF05FD003274100630A050E72
:100F600083264705130500001387040003D60606F1
:100F7000930510006F000001032707008356070642
:100F80006384C60483560707E38806FE8346870703
:100F9000E394B6FE8356C706E38006FE8316270752
:100FA0000323010013051000E3D866FC9304070037
:100FB000032707009396060193D606012320D1004C
:100FC00083560706E390C6FC6300050A83C68407C0
:100FD00013071000639AE60803D6C40663060608E2
:100FE00083D5040637250040130585A1EFF09FA4A3
:100FF0000327040003D50406930620002328970442
:10100000238CD4068326870593861600232CD704C9
:10101000832001010324C1008324810013014101C5
:10102000678000008356C7060356E7069386F6FFDF
:101030009396060193D60601130616002316D706CB
:101040002317C706639C0600230C07066FF05FEFAB
:10105000EFF0DFD0032704006FF09FF0930610003D
:10106000230CD7066FF0DFED1305F0FF6FF05FFA8A
:1010700037270040032507B2930620000327050504
:10108000034687076302D6061306100003270700EE
:1010900083468707E39CC6FE83560707E39806FE50
:1010A000835667079386F6FF9396060193D606014B
:1010B000231BD70693F5F60FE39A05FC2328E504D6
:1010C00013062000230CC7060326850593D586004A
:1010D000B3E6B600231BD70693061600232CD504CF
:1010E000035507066780000093061000230CD706FF
:1010F0006FF09FF937270040032707B2130141FF24
:10110000232411000325070513058500EFF04F8AFE
:1011100063080500832081001301C100678000007F
:10112000EFF09FB7EFF0DFBCEFF01FDE1307F0FF2B
:10113000631AE50037250040130505A4EFF09F8FE3
:10114000EFF01FF3EF00005E37270040032707B2E0
:10115000930510000325070513058500EFF04F8761
:10116000832081001301C100678000001301C1FDCD
:10117000232E810037240040130404B2032304000B
:10118000930205001305C00783230305232C910058
:10119000232A61002326D1002328E1002320110205
:1011A0002320710023225100938405002324C100D1
:1011B000EFF09F9603270400032341018326470590
:1011C0002328A30463880616832607056388061868
:1011D000EF0000540327010083260400630C071668
:1011E00003A70605032601002320E60083A5460584
:1011F00003D6C605231107062320B7008325410027
:1012000023170706231A07062322B7008325810028
:10121000232E9704138504002312B7062313B70661
:10122000930510002314B7068325C1002320E10095
:101230002315B7062316B706832501012318B70621
:101240002319B70693051600239EB604B72600009F
:101250009386F6F1231BD7062310C706230C070637
:10126000EFF09F8B0327010083260400232CA704A3
:1012700003A70605032587056304050C0326C70598
:1012800093059006EFF00FF90327040013064000C2
:10129000930530030327070503258705EFF08FF734
:1012A0000327040013064000930530038326070537
:1012B00003A7C60503A5860513172700130707FF15
:1012C0003305E500EFF00FF5032704008326410006
:1012D000032507050326C505832585051305850018
:1012E000EF00C044EF008041032704003725004091
:1012F000130585A88325070503A7C50583A68505CE
:1013000003A6450083D50506EFF0CFF203270400BE
:10131000930610001305000003270705230CD706CA
:10132000832001020324C1018324810113014102AE
:101330006780000083260705232AD7046FF01FE982
:1013400083550706372500401305C5A5EFF08FEE3E
:101350006F00000003A706056FF05FE91305F0FFBB
:101360006FF01FFC130181FE232881003724004009
:10137000130404B283260400130705001305C007F5
:1013800003A60605232691002324D1002322E10091
:10139000232A11002320C10093840500EFF0CFF72A
:1013A000832681000327040023A8A604832647057B
:1013B000638806148326070563880616EF00403508
:1013C0000327010083260400630C071403A7060506
:1013D000032601002320E60083A5460523220706F5
:1013E00023240706232607062328070603D6C60557
:1013F0002320B7008325410023110706231A07067F
:101400002322B700232E970493051600239EB604CB
:10141000B72600009386F6F1231BD7062310C706D4
:10142000230C0706138504002320E100EFF0CFEE24
:101430000327010083260400232CA70403A7060525
:10144000032587056304050C0326C705930590064D
:10145000EFF04FDC03270400130640009305300330
:101460000327070503258705EFF0CFDA03270400DC
:1014700013064000930530038326070503A7C6051E
:1014800003A5860513172700130707FF3305E5009B
:10149000EFF04FD8032704008326410003250705FA
:1014A0000326C5058325850513058500EF00002863
:1014B000EF00C0240327040037250040130585A84A
:1014C0008325070503A7C50583A6850503A6450053
:1014D00083D50506EFF00FD603270400930610000E
:1014E0001305000003270705230CD70683204101BD
:1014F000032401018324C1001301810167800000DE
:1015000083260705232AD7046FF01FEB83550706B0
:10151000372500401305C5A5EFF0CFD16F000000BF
:1015200003A706056FF05FEB1305F0FF6FF01FFCDC
:10153000130141FE137705FF232C1100232A81009C
:10154000232891002326B1002322E1002324010057
:10155000638C05121305A000EF0080141304C00172
:101560000327410093069000335787401377F70015
:101570001304C4FF1305070363D4E60013057703C0
:10158000EF0000121307C0FFE31CE4FC1305000288
:10159000EF00001113040000032741001306900020
:1015A000930414003307870003470700935647004E
:1015B000138576036364D600138506032320E100B8
:1015C000EF00000E03270100930690001377F70049
:1015D0001305770363E4E60013050703EF00400CEF
:1015E00013050002EF00C00B130770009306000103
:1015F0006304E4086386D400138404006FF0DFF909
:1016000013050002EF00C009832441001305C00741
:10161000EF000009138404016F0040011305060068
:1016200093841400EF00C0076304940203C604000F
:101630001307E0051305E002930606FE93F6F60F86
:10164000E37ED7FC93841400EF008005E31094FE42
:10165000032781001305C007130707019304070040
:101660002324E100EF00C0038326C10063FED40001
:10167000232281006FF01FEE13050002EF004002ED
:10168000138404006FF05FF1832081010324410182
:1016900083240101130500001301C10167800000CC
:1016A000B70603E103A7064013772700E31C07FEF4
:1016B000374703E12320A700678000006FF09FA356
:1016C000130141FF1305000023241100EFE0DFACFC
:1016D000374703E19306201B2328D7002320070068
:1016E000B74600E103A706008320810013670715B2
:1016F00023A0E6001301C10067800000B71602E1D5
:1017000003A706C01367270023A0E6C06780000078
:10171000B71602E103A706C01377D7FF23A0E6C0E0
:1017200067800000130510006FE01FA7B385C50098
:0C1730002328B500232AD50067800000A4
:10173C006972712100000000756E6B6E6F776E2000
:10174C0069727120736F7572636520666F722053B6
:10175C0030434155534520253038780A00000000AD
:10176C00E8020040E8020040D80300402803004093
:10177C006003004028030040280300402803004079
:10178C00E8020040280300402803004028030040E2
:10179C002803004028030040280300402803004091
:1017AC00E8020040280300402803004028030040C2
:1017BC002803004028030040280300402803004071
:1017CC002803004028030040280300402803004061
:1017DC002803004028030040280300402803004051
:1017EC00E80200403C4E554C4C3E00003031323348
:1017FC003435363738396162636465660000000041
:10180C0030060040F0050040F0050040F0050040B7
:10181C00F0050040F0050040F0050040F0050040E8
:10182C00F0050040F0050040F005004024070040A2
:10183C0000070040F0050040F0050040F0050040B6
:10184C00F0050040F0050040F0050040F0050040B8
:10185C00D4070040F0050040F0050040F0050040C2
:10186C00F0050040F0050040F00500407007004016
:10187C00F00500405C070040F0050040F00500401A
:10188C00300600405256333245202848462D5249E6
:10189C005343562D452900005543582F4F53206272
:1018AC006F6F74206F6E2025730A0000686561707D
:1018BC005F696E697428292C20256420627974650F
:1018CC007320667265650A000A2A2A2A2048414C50
:1018DC0054202D207461736B2025642C207374614B
:1018EC00636B2025303878202825642920636865AF
:1018FC00636B206661696C65640A0000455845435A
:10190C005554494F4E205354415453204154204375
:10191C0059434C452025640A5F5F5F5F5F5F5F5FE3
:10192C005F5F5F5F5F5F5F5F5F5F5F5F5F5F5F5FBB
:10193C005F5F5F5F5F5F5F5F5F5F5F5F5F5F5F5FAB
:10194C005F5F5F5F5F5F5F5F5F5F5F5F0A0000000D
:10195C007461736B202564200A09646561646C6989
:10196C006E65206D69737365733A2025640A09707E
:10197C006572696F64732065786563757465643A24
:10198C002025640A096A6F62732065786563757433
:10199C0065640A005F5F5F5F5F5F5F5F5F5F5F5FF4
:1019AC005F5F5F5F5F5F5F5F5F5F5F5F5F5F5F5F3B
:1019BC005F5F5F5F5F5F5F5F5F5F5F5F5F5F5F5F2B
:1019CC005F5F5F5F5F5F5F5F000000007461736B60
:1019DC00202564200A09646561646C696E653A208F
:1019EC0025640A0963617061636974793A2025641E
:1019FC000A0000007461736B2025642070657269A5
:101A0C006F6420656E6465640A000000736368652A
:101A1C0064756C6564207461736B20256420776930
:101A2C007468202564206A6F6273206C6566740A82
:101A3C00000000006E6F207265616C2074696D652A
:101A4C00207461736B2072656164790A0000000078
:101A5C000A2A2A2A2048414C54202D207461736B89
:101A6C002025642C20737461636B20616C6C6F6334
:101A7C00206661696C65640A000000007461736B18
:101A8C002025643A20253038782C20737461636BE0
:101A9C003A20253038782C2073697A652025640A21
:101AAC0000000000BC020040BC020040BC02004030
:101ABC00BC020040C8020040BC020040BC02004016
:101ACC00BC020040BC020040BC020040BC02004012
:101ADC00BC020040BC020040BC160040BC020040EE
:101AEC00BC020040BC020040BC020040BC020040F2
:101AFC00BC020040BC020040BC020040BC020040E2
:101B0C00BC020040BC020040BC020040BC020040D1
:101B1C00BC020040381B0040000000000000000028
:041B2C0000000000B5
:0400000540000000B7
:00000001FF
